:020000040800F2
:10000000C84D0020490200086B2700082F24000873
:1000100069270008ED140008792E00080000000090
:10002000000000000000000000000000B101000816
:10003000EF14000800000000F5010008692D000819
:1000400063020008630200086302000863020008FC
:1000500063020008630200086302000863020008EC
:1000600063020008630200086302000863020008DC
:1000700063020008630200086302000863020008CC
:1000800063020008630200086302000863020008BC
:1000900063020008630200086302000863020008AC
:1000A000630200086302000863020008630200089C
:1000B0006302000863020008F52D000863020008CF
:1000C000630200086302000863020008630200087C
:1000D000630200086302000863020008630200086C
:1000E00063020008630200086302000800F002F8DF
:1000F00000F04FF80AA090E8000C82448344AAF173
:100100000107DA4501D100F044F8AFF2090EBAE870
:100110000F0013F0010F18BFFB1A43F0010318473B
:100120006477000084770000103A24BF78C878C153
:10013000FAD8520724BF30C830C144BF04680C60ED
:10014000704700000023002400250026103A28BF35
:1001500078C1FBD8520728BF30C148BF0B60704739
:10016000662906F0BA85002070471FB500F01AFA1C
:1001700004000020002105F031FC401C60600020DC
:10018000002105F041FCE06000F0FAF91FBD10B558
:1001900010BD00F0ADFD1146FFF7E7FF03F098FD3D
:1001A00000F0CBFD03B4FFF7F2FF03BC00F0D0FD7D
:1001B000224B19680868B0E8F00F80F30988BFF394
:1001C0006F8F4FF0000080F311884EF00D0E7047D6
:1001D0000000000006480068006880F3088862B6E6
:1001E00061B6BFF34F8FBFF36F8F00DF00BF00BF5B
:1001F00008ED00E0EFF30980BFF36F8F0F4B1A6833
:1002000020E9F00F106008B54FF0500080F311881E
:10021000BFF34F8FBFF36F8F05F01CFA4FF0000054
:1002200080F31188BDE8084019680868B0E8F00F4D
:1002300080F30988BFF36F8F704700BF5400002020
:10024000EFF30580704700000948804709480047E0
:10025000FEE7FEE7FEE7FEE7FEE7FEE7FEE7FEE776
:10026000FEE7FEE704480549054A064B70470000D3
:10027000F32D0008ED000008C8470020C84D0020FD
:10028000C8490020C849002010B500F08BF9001DB6
:1002900010BD00BF495700000FB41CB50C0007AAE1
:1002A000009001D02044401E074B7B4469460190DA
:1002B000069800F09AFB002C03D06946002000F05D
:1002C000A7FB1CBC5DF814FB6D0700002DE9F0478F
:1002D0004FF0000A89460446C0F820A02046E16895
:1002E0008847002876D0252806D0D4E901219047F8
:1002F000206A401C2062F1E7E1682046002588471B
:10030000C4F81CA006460027C4F818A02A2E09D05D
:10031000304603F023F938B304EB8708303EC8F8C1
:10032000186019E059F8041B204604EB870291611C
:10033000E1688847012F064618D1E069002820DAD5
:1003400025F020051DE0D8F8180000EB800006EB32
:1003500040003038C8F818002046E1688847064653
:1003600003F0FCF80028EED1012F0AD02E2E08D180
:100370002046E16888477F1C0646022F45F020058D
:10038000C4DBA069002803DA404245F00105A06102
:10039000E80701D025F01005B6B1A6F141001928F3
:1003A00002D8203645F400654A463146204625608D
:1003B0004D46FFF7D5FE58B1012806D0ED1D25F0BA
:1003C000070000F1080989E704E005F1040985E761
:1003D00030468AE7206ABDE8F08740EA010302461A
:1003E00030B59B0710D14FF0013400E008C208C9B6
:1003F0001D1B9D4315EAC41FF8D013F0FF0102F83E
:10040000011B0DD01B0AF8E711F8013B002B02F885
:10041000013B05D011F8013B002B02F8013BF3D161
:1004200030BD40EA010370B59B072ED14FF0013675
:10043000042A2AD308C810C99D1B9D43121F15EA20
:10044000C61517D0D8B2E1B2401A50EA056110D1F2
:1004500098B2A1B2401A50EA05410AD123F07F4078
:1004600024F07F41401A50EA052102D1180EA0EB7A
:10047000146070BDA342DBD018BA21BA884201D9FA
:10048000012070BD4FF0FF3070BD0AB9002070BD73
:1004900010F8013B11F8014B63B1A3420AD1521E7F
:1004A00008D010F8013B11F8014B1BB1A34201D158
:1004B000521EEDD1181B70BD10B5203AC0F00B8054
:1004C000B1E81850203AA0E81850B1E81850A0E858
:1004D0001850BFF4F5AF5FEA027C24BFB1E81850B2
:1004E000A0E8185044BF18C918C0BDE810405FEA22
:1004F000827C24BF51F8043B40F8043B08BF70479E
:10050000D20728BF31F8023B48BF11F8012B28BFA2
:1005100020F8023B48BF00F8012B704702F0FF03B0
:1005200043EA032242EA024200F081BA4FF000029D
:1005300000B5134694469646203922BFA0E80C50D9
:10054000A0E80C50B1F12001BFF4F7AF090728BFB4
:10055000A0E80C5048BF0CC05DF804EB890028BF30
:1005600040F8042B08BF704748BF20F8022B11F059
:10057000804F18BF00F8012B7047704770477047D5
:1005800070B5064C7C44064D7D4403E02068204451
:100590008047241DAC42F9D170BD000048740000B2
:1005A00048740000004870478847002010B500F0EC
:1005B00063FA006810BD10B5044600F05DFA0460EF
:1005C00010BD70472DE9FF4F0C461E464FF0FF3718
:1005D0008BB0D2E90001DDF860800A908A46C1F351
:1005E0000A5505B93D46002108464FF00000BAF112
:1005F000000F00F4400005DA00EB80004FF44001EA
:1006000001EA50004FEA9059B9F1010F00DDB946F7
:100610000A9850EA4A000ED044F61050A5F2FF3571
:1006200045432F14B8F1000F1ED07542291E1EDD60
:10063000C9F100021CE0B8F1010F4FF0000001D039
:10064000302103E0F24305E02154401CB042FBDBC3
:1006500030460022002121540B99C1F80880C1E9DD
:1006600000200FB0BDE8F08FBD1B6D1CDEE74A46D1
:1006700000DA694206A800F089FA06AB93E80700A1
:1006800003AB83E8070050460A9900F067FB8DE84A
:100690000700A0F500501F3800900398002D0ADDD8
:1006A00042F21F014A460844002303A9039068460A
:1006B00000F0D0FD09E0A0F500504A461F380023A5
:1006C00003A90390684600F0DAFD8DE807000004F6
:1006D000000C03D04FF0FF30410800E01046B8F1A5
:1006E000000F03D00022009215461EE0751E05D4AF
:1006F00000F0C6F9303262556D1EF9D5B3460122BD
:10070000084302D000227F1C04E02078302801D169
:1007100000227F1E002A099784D01DE0112D07DAE0
:1007200000F0AEF9303262556D1C50EA0102F5D18D
:10073000084302D00098C8B10EE00021681E05E011
:10074000235C625C63542254401E491C8142F7DBE7
:10075000AB46A81B401E0990002004F80B000B9824
:10076000099AC0F80880C0E9002B7AE711264FF0FB
:10077000000857E72DE9F04F88460446D21D22F0C5
:10078000070191B0D1E90001CDE90A0102F075FB42
:1007900002460B98C00F01D02D2007E0206881078A
:1007A00001D52B2002E0202101EAC000032A099094
:1007B00001D0072A05DB03464146204600F0A6F992
:1007C0000BE12078800601D5E06900E00620B8F151
:1007D000650F814606D0B8F1660F18D0B8F1670FE3
:1007E00070D131E00020B9F1110F009001DB11232D
:1007F00001E009F101030AAA01A90CA8FFF7E2FE32
:10080000DDE90C70002609F10105834647E001206F
:100810004B4600904FF000470AAA01A90CA8FFF729
:10082000D1FEDDE90DB00C995D46002610B909F145
:1008300001000D18B9EB050003D4C0F1FF3609F132
:100840000105A5EB09002BE0B9F1010F01DA4FF02A
:1008500001090020B9F1110F0090484601DD112374
:1008600000E003460AAA01A90CA8FFF7ABFEDDE9E8
:100870000C704D4600268346207800070AD4AB450D
:1008800000DA5D4601A8012D04DD411911F8011CB3
:10089000302907D04F4502DA17F1040F04DA01209E
:1008A00082460FE06D1EEEE7002F02DCED1B3E449A
:1008B00003E0781CA84200DD7D1CB81B00F1010A92
:1008C0004FF000472078000703D4AA4501DB4FF022
:1008D000FF3A0021B7F1004F0DF143088DF84310A6
:1008E00024D002202B23002F01DA7F422D230A215E
:1008F000021EA0F1010000DC5FB197FBF1FC97FB49
:10090000F1F201FB1C7C17460CF1300C08F801CD0C
:10091000EEE7A8F1010003702188090501D5452102
:1009200000E06521A0F1010800F8011C09980FA959
:10093000A1EB0807FF1D00B10120411901EBEA708E
:10094000A1693844081A401EA0612078C00602D46C
:100950002046AFF30080099828B1D4E901219047DF
:10096000206A401C20622078C00622D52046AFF3C2
:1009700000801EE0002E04DBB34502DD01A8805D8F
:1009800000E03020D4E901219047206A401C206219
:10099000761CAAF101005FEA000A0AD1FFF702FE05
:1009A000C0680168405CD4E901219047206A401C7E
:1009B0002062281EA5F10105DCDC07E0D4E9012155
:1009C00018F8010B9047206A401C2062381EA7F1DE
:1009D0000107F3DC2046AFF30080032011B041E6AD
:1009E00001694A1C02610878704700B58FB0CDE9F3
:1009F00001310021059105497944CDE903101146E3
:100A00006846FFF763FC0FB000BD0000E5FFFFFF85
:100A10000A6802F8010B0A607047D1E900239A4284
:100A200002D2531C0B60107070474FF00002042973
:100A3000C0F0128010F0030C3FF47AADCCF1040C3E
:100A4000BCF1020F18BF00F8012BA8BF20F8022B41
:100A5000A1EB0C01FFF76CBD5FEAC17C24BF00F87D
:100A6000012B00F8012B48BF00F8012B7047000054
:100A700000487047684700200048704768470020DA
:100A800030B5B0F10A024FEA900E71F100034EEA60
:100A9000817EB0EB0E0061EB91014FEA101E4EEA31
:100AA000017E10EB0E0041EB11114FEA102E4EEAC1
:100AB000016E10EB0E0041EB11214FEA104E4EEA91
:100AC000014E10EB0E0041EB1141401841F10001C5
:100AD0004FEAD00040EA41704FEAD10110EB8005A7
:100AE0004FEA810444EA907444EB01046D1944EB2D
:100AF0000404521BA3414FF0000348BF0A3200D543
:100B000030BD401C41F1000130BD00002DE9F04135
:100B10001F46044603260168072A01F4006004DB2F
:100B200008B116A505E016A503E008B115A500E07B
:100B300015A521F010002060A069C01EA0610FB1B2
:100B4000401EA0612046AFF300804FB1D4E90121DF
:100B500038469047206A401C2062C01C206206E094
:100B6000206AFAE7D4E9012115F8010B9047761EB7
:100B7000F8D22046AFF30080BDE8F0814E414E0030
:100B80006E616E00494E4600696E66002DE9F047C1
:100B9000814616468AB0354878440DC88DE80D0068
:100BA00032487844801C03AC0DC884E80D0041F63F
:100BB0009B300844372190FBF1F290FBF1F5A5F151
:100BC000800501FB12041B3C02D56442012000E0B9
:100BD0000020DFF898A080460027FA44AAF1BE0A58
:100BE0000EE0E0070AD03246684607EB47010123D2
:100BF0000AEB810100F043FB8DE8070064107F1CC5
:100C0000002CEED1194F7F44AE3F19E0E80715D014
:100C100007EB04100DF1180A90E80E008AE80E00A8
:100C2000C068F04201D1981908903246012306A904
:100C300003A800F024FB03AB83E807006D10641CDD
:100C4000002DE3D14FF0010332466946B8F1000FA1
:100C500003A802D000F0FEFA01E000F010FBC9E9A1
:100C60000001C9F808200AB0BDE8F087A86C0000B0
:100C70004FF0013C50F8042B51F8043B9A4221D12B
:100C8000A2EB0C03934313EACC1317D150F8042BB7
:100C900051F8043B9A4215D1A2EB0C03934313EA9B
:100CA000CC130BD150F8042B51F8043B9A4209D1D4
:100CB000A2EB0C03934313EACC13DBD04FF00000FC
:100CC000704700BFD01A01BAB1FA81F101F01801E2
:100CD00022FA01F0CB40C1F12001DBB2C0B2C01A50
:100CE0002CFA01F3D11A914311EAC311E6D17047EE
:100CF0007546FFF7BDFEAE4605006946534620F037
:100D00000700854618B020B5FFF7ACFABDE82040D3
:100D10004FF000064FF000074FF000084FF0000BB7
:100D200021F00701AC46ACE8C009ACE8C009ACE86A
:100D3000C009ACE8C0098D46704710B50446AFF352
:100D400000802046BDE81040FFF72CBA7047000035
:100D500001491820ABBEFEE7260002005FEA400C06
:100D600008BF91F0000F4FEA8C234FEAC12243EAFB
:100D700051514FEA1C5018BF00F5F0404FEA3000C7
:100D800018BF41F000415FEA6C5C00F02980BCF1C3
:100D9000FF3F08BF40F080407047130C06BF1204AD
:100DA0004FF0100C4FF0000C130E04BF12020CF1A8
:100DB000080C130F04BF12010CF1040C930F04BFB5
:100DC00092000CF1020CD30F04BF52000CF1010C85
:100DD00011464FF00002A0F11F00A0EB0C0070477D
:100DE00011F0004F08BF704731F000413FF4D5AF1C
:100DF0000B0C06BF09044FF0100C4FF0000C0B0E4B
:100E000004BF09020CF1080C0B0F04BF09010CF11F
:100E1000040C8B0F04BF89000CF1020CCB0F04BF34
:100E200049000CF1010CCCF12003A0EB0C0022FADC
:100E300003F302FA0CF241EA030100F101007047EA
:100E400020F07F4C80EA030023F07F47ACEB0703E0
:100E500003F57C5300F0004003F1FF032DE98049C6
:100E60004FEA154B09B44FEA144325EA0B4E24EA26
:100E700003480FF2042606EB132749083E785FEA81
:100E8000320203FB0667C7F5000707FB06F64FEAC9
:100E900054374FEAD64606F1020607FB066CCCF142
:100EA000005C4FEA1C472CEA074C07FB06F40CFBDE
:100EB00006F504EB15464FEA961634BF00204FF0B6
:100EC00000404FEAD13706FB07FC4FEA1C4C0CFBF5
:100ED0000BF7D21B03FB0CF761EB07010CFB0EF7C2
:100EE000B0EB074072EB17420CFB08F734BFA2EBE4
:100EF0000742B2EB074261EB17414FEA0C444FEA5D
:100F0000910706FB07FC4FEA1C4C0CFB0BF7B0EB00
:100F1000C74072EB573203FB0CF734BFA2EBC7425A
:100F2000B2EBC74261EB57310CFB0EF7B0EBC700D9
:100F300072EB57720CFB08F734BFA2EBC702B2EB9F
:100F4000C70261EB5771039F4FEA816141EA921139
:100F500004EBCC044FEAD1374FEA826206FB07FC70
:100F600042EA90124FEA80604FEA1C4C0CFB0BF7F0
:100F7000D21B03FB0CF761EB07010CFB0EF7B0EB88
:100F8000074072EB17420CFB08F734BFA2EB074295
:100F9000B2EB074261EB17414FEA8C554FEA9107DC
:100FA00004EB9C2406FB07FC4FEA1C4C0CFB0BF7E4
:100FB000B0EBC74072EB573203FB0CF734BFA2EB28
:100FC000C742B2EBC74261EB57310CFB0EF7B0EBF7
:100FD000C70072EB57720CFB08F734BFA2EBC702D5
:100FE000B2EBC70261EB577115EB4C254FEA8161FB
:100FF00041EA92114FEA82624FEAD13742EA9012F7
:1010000006FB07FC44F100044FEA80604FEA1C4CE9
:101010000CFB0BF7D21B03FB0CF761EB07010CFB7E
:101020000EF7B0EB074072EB17420CFB08F734BF2A
:10103000A2EB0742B2EB074261EB174115EB1C151F
:101040004FEA813141EA92414FEA823242EA9042CC
:101050004FEA80304FEA0C7644F1000448EA03433B
:101060004EEA0B484FF0000EB2EB080C71EB030791
:1010700024BF624639464EEB0E0E4FF0000B0018AF
:10108000524149414BEB0B0BB2EB080C71EB0307E0
:101090007BF1000B24BF624639464EEB0E0E4FF03B
:1010A000000B0018524149414BEB0B0BB2EB080C03
:1010B00071EB03077BF1000B24BF624639464EEB10
:1010C0000E0E51EA020718BF46F0010616EB0E7627
:1010D00055F1000254F1000103D5BDE88901BDE8D6
:1010E0000088BDE88901BDE80048B619524141EBCE
:1010F0000101A3F10103704780807F7E7D7C7B7AB4
:101100007978777676757473727171706F6E6E6DB3
:101110006C6C6B6A6A696868676666656464636359
:1011200062616160605F5F5E5E5D5D5C5C5B5B5ADF
:101130005A5959585857575656555555545453534C
:1011400052525251515050504F4F4F4E4E4D4D4DA7
:101150004C4C4C4B4B4B4A4A4A49494948484847F2
:101160004747474646464545454444444443434330
:101170004342424242414141002B9C4630D47700D9
:101180002BD01CB54FEA370703B44FF010004FF0D7
:101190001001BAF1000F06D0BCF1000FDCBF40F027
:1011A000080040F008014FF000000FBCBDE81040FF
:1011B0000BF1010BBBF1010F08BF5FEA170722BF5C
:1011C00012F1010211F101014FF0004143F100035E
:1011D00000F0004043EA00007047F9D35708D0E719
:1011E00046EA064613F1400F4FEA16461FDD13F19B
:1011F000200FDFBF16430A46002120335B42BED0DA
:10120000C3F1200746EA064602FA07F74FEA1646F8
:1012100046EA0706C3F1200722FA03F201FA07F7AC
:1012200021FA03F14FF0000342EA0702A7E746EA7A
:10123000020646EA06464FEA164646EA0106BCBFE3
:1012400046EA0646360C4FF000034FF000024FF01E
:10125000000194E72DE9804C9A46934670B491E8DA
:10126000380007C831EA400C48BF34EA430C03D5C4
:10127000FFF7E6FDFFF780FFF0BCBDE8008C2DE92D
:10128000804C9A46934670B491E8380007C810F035
:10129000804F08BF13F0804F03D100F005F8FFF72F
:1012A0006BFFF0BCBDE8008C20F07F4780EA0300B4
:1012B00023F07F4C07EB0C03A3F57C5300F00040B8
:1012C000A3F1FE0392F0000F00F0B38095F0000F41
:1012D00000F077802DE901494FEA11404FEA1446AA
:1012E00021EA004800FB06FC24EA064708FB06F654
:1012F00007FB08F800FB07F718EB06484CEB164C09
:101300004FEA124B18EB07484FEA15464CEB1740D3
:1013100022EA0B4E0BFB06FC25EA06470EFB06F6FF
:1013200007FB0EFE0BFB07F71EEB064E4CEB164CB5
:101330004FF000061EEB074E4CEB174B18EB0B085B
:1013400040F1000018EB0E0B58EB000840F10000D4
:101350008F1A4FF000013CBFC943661B14BFB5EBA9
:10136000040C00213CBFC943F61B4FEA17444EEA68
:101370008E0E27EA04454FEA1C4704FB07622CEA5D
:10138000074C05FB07F70CFB05F604FB0CFC16EB02
:10139000074642EB174216EB0C4642EB1C421BEB96
:1013A000060658EB0202414146EA9E0601D5BDE819
:1013B0000189B619524141EB0101A3F10103BDE8D6
:1013C00001894FEA14454FEA114724EA054621EA0C
:1013D000074C05FB07F406FB07F70CFB06F105FBC2
:1013E0000CFC11EB074144EB17444FEA124711EB99
:1013F0000C4144EB1C4422EA074C05FB07F206FBB8
:1014000007F70CFB06F605FB0CFC16EB074642EB58
:10141000174216EB0C4642EB1C456A1854F10001CA
:1014200048BF7047B619524141EB0101A3F10103D6
:10143000704795F0000F37D04FEA11424FEA14473A
:1014400021EA024624EA074C02FB07F106FB07F7F4
:101450000CFB06F402FB0CFC14EB074441EB1741B8
:101460004FEA154714EB0C4441EB1C4125EA074CAD
:1014700002FB07F506FB07F70CFB06F602FB0CFC6C
:1014800016EB074645EB174516EB0C4645EB1C42A1
:10149000121951F1000148BF7047B619524141EB92
:1014A0000101A3F1010370474FEA14454FEA1147C8
:1014B00024EA054621EA074C05FB07F106FB07F77E
:1014C0000CFB06F24FF0000605FB0CFC12EB07428A
:1014D00041EB174112EB0C4251EB1C4148BF7047E6
:1014E000921841EB0101A3F101037047FEE7704739
:1014F00072B6FEE770B5044600F008F90546601CB8
:1015000002D004480078044400F000F9401BA042D7
:10151000FAD370BD440000202DE9F84FDFF8B891F0
:101520000024A9F1040B23460F2709F1040AABF1AB
:10153000040EC9E00125A5402A40AA427DD1674E8C
:10154000D1F804C0ACEB0608B44532D014DCBCF1D1
:10155000030F3AD009DCBCF1000F2AD0BCF1010F17
:101560001CD0BCF1020F31D11DE0BCF1110F17D01E
:10157000BCF1120F2AD119E0B8F5881F19D006DC8A
:10158000B8F5803F15D0B8F5801F1FD111E0B8F530
:10159000001F0ED0B8F5041F18D10AE0CB6815E083
:1015A000CB681B1D12E0CB6808330FE0CB680C330F
:1015B0000CE08B682BB1012B4FF0080303D0456181
:1015C00004E0042302E0056100E00023FF2A01D8C3
:1015D000064601E000F104064FEA840501D9A5F1B1
:1015E0002005D6F8008007FA05FC28EA0C0803FA63
:1015F00005F548EA0508C6F800804D68ED0062D59B
:10160000374DAE6946F00106AE61AD6924F00306C0
:1016100005F001050095334D06EB050CDCF808508C
:10162000A607360F07FA06F825EA0805DFF8B8809E
:10163000404503D14FF0000817E044E0DFF8AC80EC
:10164000404502D14FF001080FE0DFF8A48040458B
:1016500002D14FF0020808E0DFF89880404502D13F
:101660004FF0030801E04FF0040808FA06F848EAD2
:101670000508CCF808804D68D9F80060ED024D46A9
:1016800001D5164300E096432E604D68DAF80060FD
:10169000AD02554601D5164300E096432E604D68D5
:1016A000DBF80060AD035D4601D5164300E09643CC
:1016B0002E604D68DEF80060ED03754601D51643D7
:1016C00000E096432E60641C0D682A46E5407FF4D6
:1016D00031AFBDE8F88F0000080401400000111090
:1016E000001002400000014000080140000C0140D1
:1016F00000100140001401408068084000D0012023
:1017000070470AB1016170470904FBE7014880682E
:10171000704700004400002070B5040025D094F804
:101720003D00002520B984F83C50204600F004FA22
:10173000242084F83D002068016821F00101016047
:101740002068016841F4004101602068016821F4CB
:101750000041016000F09EFB4D4A6168914201D852
:101760004C4900E04C49884201D2012070BD4B49F0
:101770002368B0FBF1F15E6826F03F060E435E6021
:101780006368934206D94FF4967359434FF47A73C2
:10179000B1FBF3F12368491C1E6A26F03F06314372
:1017A00019626168914210D84900401EB0FBF1F205
:1017B000521CC2F30B02042A01D2042022E0B0FB27
:1017C000F1F0401CC0F30B001CE0A268F2B301EB87
:1017D000C10303EB0116431EB3FBF6F35B1C43F49A
:1017E00080431B0549D092B301EBC10202EB01110A
:1017F000401EB0FBF1F0401CC0F30B0040F48040F1
:1018000040F400402168CA694CF6FF739A431043C4
:10181000C861D4E9071001432068026822F0C002C1
:1018200011430160D4E9030101432068826848F252
:10183000FF339A4311438160D4E9050108432168CD
:10184000CA6822F0FF021043C86001E00EE016E013
:101850002068016841F0010101602564202084F8BE
:101860003D00256384F83E50002070BD01EB410629
:10187000431EB3FBF6F35B1CB3E70120C2E701EBA9
:101880004101401EB0FBF1F0401CC0F30B00B7E774
:10189000A086010080841E0000093D0040420F0028
:1018A0002DE9FF4F81B089460446FFF72FFF05461B
:1018B00094F83D004FF0000820287DD11923012223
:1018C00050492046009500F045FE002874D194F858
:1018D0003C00012870D0012084F83C002068016899
:1018E000C90703D1016841F0010101602068016866
:1018F00021F400610160242084F83D000026266464
:101900004148E0624FF0011B20272068016841F444
:10191000807101600095002259462046049B00F02A
:1019200019FE50B120680068C00502D54FF4007060
:101930002064032005B0BDE8F08F216809F0FE00A7
:101940000861FFF7E3FE2168054648694969C0F36D
:101950004000C1F380214FF0A00A0FE0FFF7D6FE50
:10196000411B0498814200D808B984F83DA0216841
:1019700048694969C0F34000C1F3802194F83D20D3
:10198000A02A02D008B90029E8D084F83D70206868
:101990004169C943890716D4016841F400710160A7
:1019A0002068416980691923012216492046009563
:1019B00000F0D0FDB8B900E021E084F83D7084F873
:1019C0003C600020B6E7016841F4007101602168C5
:1019D0006FF480604861192301220A49204600956E
:1019E00000F0B8FD08B10120A4E7039808F1010850
:1019F00080458AD384F83D7084F83C60F3E7022088
:101A000098E70000020010000000FFFF2DE9F84FEA
:101A10001F4690468A460446DDF82890FFF776FE7A
:101A2000054694F83D0020287FD119230122404922
:101A30002046009500F08EFD002876D194F83C00F9
:101A4000012872D0012084F83C0020680168C90791
:101A500003D1016841F0010101602068016821F4AF
:101A600000610160212084F83D00102084F83E00D0
:101A700000262664C4F824806785608D20852D4863
:101A8000E0622B464A465146204600F0E9FC90B9F8
:101A9000206841698069009036E02A464946204620
:101AA00000F0FEFD50B1206C042804D120680168CC
:101AB00041F4007101600120BDE8F88F606A21687F
:101AC00000780861606A401C6062618D491E618512
:101AD000218D491E89B2218522685369DB435B074A
:101AE0000BD451B100781061606A401C6062608D57
:101AF000401E6085208D401E20852A46494620468E
:101B000000F0FCFC0028CED1208D0028C5D154F86F
:101B10003D0B016841F400710160202004F81E09AA
:101B2000E67766770020C7E7FFE70220C4E70000FA
:101B3000020010000000FFFF10B586B000210091E8
:101B400001910291039100680F4988421AD10F4C0C
:101B5000A06940F00800A061A069694600F0080093
:101B60000490C020009012200190032003900848A8
:101B7000FFF7D2FCE06940F40010E061E06900F496
:101B80000010049006B010BD005400400010024048
:101B9000000C01400248816802781144816070475E
:101BA00044000020074810B5016841F010010160B1
:101BB000032000F0A7F80F2000F006F800F050F81E
:101BC000002010BD0020024030B505461F4887B0F8
:101BD000C16941F00401C161C06906A900F00400B7
:101BE000009001A800F036F90498B0B100F052F965
:101BF00040001749174AB0FBF1F11748491E02602F
:101C0000416040F2E7320021C0E903218160816137
:101C100000F008FB040003D015E000F03BF9E8E712
:101C20000D4800F02DFB04000DD11E2000F03CF803
:101C3000102D07D2002229461E2000F043F8074845
:101C4000056000E0012407B0204630BD00100240CE
:101C500040420F0000080040980B00204800002080
:101C60000F4808B5816941F001018161816901F086
:101C700001010091C16941F08051C161C069002238
:101C800000F0805000900F21901E00F01BF80548D6
:101C9000416821F0E06141F00071416008BD000041
:101CA0000010024000000140002809DB00F01F0284
:101CB000012191404009800000F1E020C0F80011AE
:101CC00070470000F0B40E4B1B680C46C3F30223B0
:101CD000C3F10705042D00D90425191D072901D2D8
:101CE000002300E0DB1E012606FA05F1491E214013
:101CF00099409E40761E16403143F0BC01F0D7B8A3
:101D00000CED00E0064900F0070208684FF6FF03FB
:101D1000184040EA0220034A104308607047000060
:101D20000CED00E00000FA052DE9F0470F46050034
:101D300061D0434E306800F00700B84209D23068E5
:101D400020F0070038433060306800F00700B842E8
:101D500051D128683B4C810712D5400703D56068F4
:101D600040F4E06060602878000703D5606840F4C4
:101D7000605060606068A96820F0F000084360600F
:101D80002878C00728D06868012810D02168022868
:101D900010D0890700292EDA616821F00301014380
:101DA0006160FFF7B3FC804641F288390DE021689D
:101DB0008903EFE78901EDE7FFF7A8FCA0EB080135
:101DC000494502D90320BDE8F0876068696800F0E2
:101DD0000C00B0EB810FEFD1306800F00700B84283
:101DE0000BD9306820F0070038433060306800F0CD
:101DF0000700B84201D00120E5E72878400705D563
:101E00006068E96820F4E0600843606028780007B3
:101E100006D56068296920F4605040EAC10060601E
:101E200000F048F86168084AC1F30311515CC840EA
:101E30000649086006480068FFF7C6FE0020C2E7B2
:101E40000020024000100240FE75000850000020F3
:101E5000480000200F2202600C4A536803F003037D
:101E60004360536803F0F0038360536803F4E06356
:101E7000C36052684FF4E06303EAD202026104488F
:101E8000006800F007000860704700000010024082
:101E9000002002400448054900684968044AC1F32B
:101EA0000221515CC84070475000002000100240E1
:101EB0000E7600080E4A51680E4801F00C03042B00
:101EC00011D0082B0FD10C48C1F38343C903C05C68
:101ED0000AD55168084AC1F34041921E515C054A37
:101EE0005043B0FBF1F0704704494843704700008D
:101EF0000010024000127A00EE75000800093D0053
:101F00002DE9F84F040070D02078C04DC00749D0AB
:101F10006868C0F38100012807D06868C0F38100B9
:101F2000022809D16868C00306D52868800339D51E
:101F300060680028E7D035E06068B0F5803F0BD0DE
:101F400010B1B0F5A02F11D0286820F4803028609F
:101F5000286820F4802002E0286840F4803028605F
:101F6000606890B1FFF7D2FB06460AE0286840F4AB
:101F700080202860F0E700BFFFF7C8FB801B6428C3
:101F800073D828688003F7D50CE0FFF7BFFB06463F
:101F900005E000BFFFF7BAFB801B6428F0D8286873
:101FA0008003F7D420789A4E80074FF001094FF054
:101FB000000839D5686810F00C0F07D06868C0F3C6
:101FC0008100022809D16868C00306D42868800708
:101FD00014D52069012808D110E02069B0B1C6F8F5
:101FE0000090FFF793FB074605E00AE1FFF78EFB41
:101FF000C01B0228C4D828688007F7D52868616903
:1020000020F0F80040EAC10028600DE0C6F800802A
:10201000FFF77CFB074604E0FFF778FBC01B0228B4
:1020200023D828688007F7D4207800072CD5794872
:10203000A169D9B1C0F80090FFF768FB074604E03A
:10204000FFF764FBC01B02280FD8686A8007F7D52A
:1020500071484FF4FA510068B0FBF1F0009000BFF6
:102060000098411E0091FAD20EE080E0C0F8008096
:10207000FFF74CFB074604E0FFF748FBC01B0228B4
:1020800075D8686A8007F7D42078400760D5E8697A
:102090000027C00008D4E86940F08050E861E86992
:1020A000012700F0805000905C480168C90513D4F6
:1020B0000168834641F480710160FFF727FB824687
:1020C00006E000BFFFF722FBA0EB0A0064284ED811
:1020D000DBF80000C005F5D5E06801280AD008B19A
:1020E000052813D0286A20F001002862286A20F011
:1020F000040002E0286A40F001002862E06841F232
:10210000883B98B1FFF702FB82460BE0286A40F05B
:1021100004002862EEE700BFFFF7F8FAA0EB0A011F
:1021200059455AD8286A8007F6D50CE0FFF7EEFA31
:10213000824605E0FFF7EAFAA0EB0A0159454CD8C0
:10214000286A8007F6D41FB1E86920F08050E86162
:10215000E06988B36968C1F38101022944D002288B
:10216000C6F8608004D0FFF7D1FA044638E034E0C6
:10217000FFF7CCFA074604E0FFF7C8FAC01B0228B5
:102180002BD828688001F7D4206AB0F5803F05D1AC
:102190006868A16820F4003008436860D4E9080149
:1021A0000843696821F4741108436860C6F86090B8
:1021B000FFF7ACFA044606E025E000BFFFF7A6FAF9
:1021C000001B022809D828688001F7D51BE000BF52
:1021D000FFF79CFA001B022802D90320BDE8F88F04
:1021E00028688001F4D40EE00128F7D06868226ADC
:1021F00000F48031914204D1616A00F47010884289
:1022000001D00120EAE70020E8E7000000100240CA
:102210000000424280044242500000200070004012
:102220007047704710B5040003D094F83D0010B11A
:1022300007E0012010BD002084F83C00204600F09B
:102240001EF8022084F83D00211D206800F0D8FD12
:10225000012084F8460084F83E0084F83F0084F8AA
:10226000400084F8410084F8420084F8430084F878
:10227000440084F8450084F83D00002010BD7047FC
:1022800090F83D10012901D001207047022180F80B
:102290003D100168CA6842F00102CA6000680B493B
:1022A000884208D0B0F1804F05D00949884202D059
:1022B0000849884204D1816801F00701062903D04A
:1022C000016841F00101016000207047002C0140CD
:1022D000000400400008004070472DE9F04104462A
:1022E0000068C66805694FF00007A90713D5B10754
:1022F00011D5F91E016101202077206880698007CF
:10230000204602D0FFF7E8FF04E000F07EF8204608
:1023100000F07CF82777680716D5700714D5216878
:102320006FF004000861022020772068806910F4B3
:10233000407F204602D0FFF7CFFF04E000F065F8B1
:10234000204600F063F82777280715D5300713D506
:1023500021686FF008000861042020772068C069B8
:102360008007204602D0FFF7B7FF04E000F04DF8E9
:10237000204600F04BF82777E80616D5F00614D56E
:1023800021686FF010000861082020772068C0697C
:1023900010F4407F204602D0FFF79EFF04E000F0DB
:1023A00034F8204600F032F82777E80708D0F00725
:1023B00006D021686FF001000861204600F028F87F
:1023C000280608D5300606D521686FF08000086120
:1023D0002046FFF725FF680608D5700606D5216858
:1023E0006FF040000861204600F020F8A8060AD5EA
:1023F000B00608D521686FF0200008612046BDE8CE
:10240000F041FFF70EBFBDE8F08170477047000054
:1024100010B500680449884205D1FFF7BBFBBDE851
:10242000104001F02CBD10BD000800407047FEE7D1
:1024300001684A69D24352050FD46FF480624A6141
:10244000002140F8301F202242738173026942F05C
:1024500004020261017301207047002070470000F0
:10246000F8B50446C06A1E460D461746082807D030
:10247000012805D010F5803F02D0206B122804D12E
:102480002068016841F480710160134600224FF01A
:1024900001112046009600F05DF840B12068006808
:1024A000C00502D54FF4007020640320F8BD2069F8
:1024B000B0F5804F0ED00620216800EAD51040F01C
:1024C000F000086133463A460B49204600F08AF88E
:1024D00078B902E005F0FE0000E0E8B2216808618A
:1024E000054933463A46891F204600F07BF800280C
:1024F000DCD00120F8BD00000800010070B51646D0
:102500000D4604461EE02046FFF792FF08B1012069
:1025100070BD681C16D0FFF7F9F8801BA84200D8E0
:1025200085B920684069C04340070BD5002044F8B6
:10253000300F20216173A073216941F020012161D6
:102540002073E4E720684069C0434007DBD40020E3
:1025500070BD00002DE9F047984617460D46044629
:10256000C1F30746DDF820902AE000BFB8F1FF3F35
:1025700026D0FFF7CBF8A0EB0901414502D8B8F10E
:10258000000F1DD12068012E16D0806925EA0000B9
:102590000004000C12D00020B84211D1002044F8F1
:1025A000300F20216173A073216941F02001216166
:1025B00020730120BDE8F0874069E7E70120EBE7E1
:1025C0002068012E0AD0806925EA00000004000C72
:1025D00006D00020B842C9D00020EBE74069F3E7FD
:1025E0000120F7E72DE9F047984616460D460446C8
:1025F0004FF000094FF0200AC1F3074723E020689D
:102600004069C043400515D42068016841F4007159
:10261000016021686FF480604861C4F8309084F8EC
:102620003DA084F83E90216C41F00401216484F8BF
:102630003C9021E0701C06D0FFF768F8A0EB080082
:10264000B04203D816B1012F1FD021E02068012F1E
:1026500015D0806925EA00000004000C18D000BFE6
:1026600044F8309F84F80DA084F80E90216941F061
:102670002001216184F80C900120BDE8F0874069B9
:1026800025EA00000004000CEAD12068406901E05E
:102690002068806925EA00000004000CAFD1ECE757
:1026A00070B516460D4604461EE02046FFF7C0FEF4
:1026B00008B1012070BD681C16D0FFF727F8801BF9
:1026C000A84200D885B920684069C04300060BD5F0
:1026D000002044F8300F20216173A073216941F07C
:1026E000200121612073E4E720684069C0430006AF
:1026F000DBD4002070BD000070B586B00024174800
:102700000094019402940394816941F00401816171
:10271000816901F004010491816941F0080181613E
:1027200080690F4E00F0080004900122F821304625
:10273000FEF7E7FFF8200125CDE900050220CDE9ED
:10274000024069463046FEF7E7FE1B208DE8310067
:1027500069460448FEF7E0FE06B070BD0010024076
:1027600000080140000C0140FEE7FEE710B5002024
:1027700000F024F8BDE8104000F04AB970B5802898
:1027800013D2402911D20B4B012401F007051E7909
:10279000AC40094BC90800EBC1100EB132B101E0E9
:1027A000012A03D0195CA143195470BD195C21435F
:1027B000FAE700002C000020CC04002028B1FF2202
:1027C0004FF480610248FDF7A9BE0022F8E700003F
:1027D000CC040020014A1080518070472C0000205A
:1027E00010B502F033FD44F62063012278215448ED
:1027F000FFF756F808B1002010BD40F6C210401E89
:10280000FDD1AE220021782002F026FD20220021F9
:10281000782002F021FD10220021782002F01CFD1A
:10282000B0220021782002F017FDC8220021782074
:1028300002F012FD00221146782002F00DFD102258
:102840000021782002F008FD40220021782002F0CB
:1028500003FD81220021782002F0FEFCFF220021EE
:10286000782002F0F9FCA1220021782002F0F4FC8B
:10287000A6220021782002F0EFFCA8220021782077
:1028800002F0EAFC3F220021782002F0E5FCA422BD
:102890000021782002F0E0FCD3220021782002F011
:1028A000DBFC00221146782002F0D6FCD522002164
:1028B000782002F0D1FCF0220021782002F0CCFC3C
:1028C000D9220021782002F0C7FC222200217820A2
:1028D00002F0C2FCDA220021782002F0BDFC1222B4
:1028E0000021782002F0B8FCDB220021782002F0E1
:1028F000B3FC20220021782002F0AEFC8D220021C2
:10290000782002F0A9FC14220021782002F0A4FC17
:10291000AF220021782002F09FFC2E220021782097
:1029200002F09AFC0020FFF749FF00F071F805481B
:1029300000210180418001214171084610BD000045
:10294000CC0800202C0000202DE9F04781462548C6
:102950000D46924601882A781144802905D2804686
:10296000408869780844402802D30020BDE8F087F9
:1029700000262AE0A9F1200101FB00606A6800241A
:1029800032F810701DE000BF07FA04F0000409D50A
:10299000B8F80210B8F800003144204489B280B27F
:1029A00052460BE0BAF1000F1AD00022B8F802101C
:1029B000B8F800003144204489B280B2FFF7DEFE4F
:1029C000641C2878A042DFD8761C6878B042D1D841
:1029D000B8F800102A7848461144A8F80010C5E756
:1029E0000122E3E72C00002070B515460E46044690
:1029F00009E02A463146FFF7A7FF2178884201D037
:102A0000C8B270BD641C20780028F2D1C0B270BD7D
:102A100070B5104D002400BF04F1B000C2B2002117
:102A2000782002F019FC00221146782002F014FCF4
:102A300010220021782002F00FFC05EBC412802345
:102A40004021782002F018FC641CE4B2082CE3D387
:102A500070BD0000CC04002070B594B0044601F0B5
:102A6000FCF90646206800F0F7FD304D60604FF03D
:102A7000FF31A86801F001FA286800284CD160688D
:102A800020F00041C1F1FF41C90F45D1686001202C
:102A90002860FFF76BFE01F0E0F9801B03F08AFF6E
:102AA000234903F0ADFE0646002122A2084602F0AB
:102AB00053F80A220021686801F01CFF304603F039
:102AC000FFFDCDE900011EA214210EA8FDF7E4FBD5
:102AD0000EAA1421002002F03FF82068696800F077
:102AE00083FE20F0004003F0EBFD04460E466868CC
:102AF00003F0E6FDCDE90001CDE9024614A228214C
:102B000004A8FDF7C9FB04AA1E21002002F024F846
:102B100001F0E9F900F0DEFDA86801F0ACF901F080
:102B2000E2F914B0BDE8704001F0DFB934000020D4
:102B300000401C46426973656374696F6E3A000019
:102B400054696D653A20252E34662073000000001C
:102B50004B7120252E32663A20252E346600000067
:102B600070B594B0044601F078F90646206801F08B
:102B700037F9304D60604FF0FF31A86801F07DF902
:102B8000286800284CD1606820F00041C1F1FF4165
:102B9000C90F45D1686001202860FFF7E7FD01F00B
:102BA0005CF9801B03F006FF234903F029FE06466B
:102BB000002122A2084601F0CFFF0A220021686806
:102BC00001F098FE304603F07BFDCDE900011DA227
:102BD00014210EA8FDF760FB0EAA1421002001F0BD
:102BE000BBFF2068696800F0FFFD20F0004003F0A3
:102BF00067FD04460E46686803F062FDCDE90001FA
:102C0000CDE9024613A2282104A8FDF745FB04AA3A
:102C10001E21002001F0A0FF01F065F900F05AFD2F
:102C2000A86801F028F901F05EF914B0BDE8704021
:102C300001F05BB93400002000401C464E657774FB
:102C40006F6E3A0054696D653A20252E3466207304
:102C5000000000004B7120252E32663A20252E34CC
:102C60006600000070B594B0044601F0F6F8064620
:102C7000206802F02FFA304D60604FF0FF31A868F5
:102C800001F0FBF8286800284CD1606820F0004172
:102C9000C1F1FF41C90F45D1686001202860FFF7ED
:102CA00065FD01F0DAF8801B03F084FE234903F090
:102CB000A7FD0646002122A2084601F04DFF0A2288
:102CC0000021686801F016FE304603F0F9FCCDE9FA
:102CD00000011DA214210EA8FDF7DEFA0EAA142190
:102CE000002001F039FF2068696800F07DFD20F0C8
:102CF000004003F0E5FC04460E46686803F0E0FC83
:102D0000CDE90001CDE9024613A2282104A8FDF770
:102D1000C3FA04AA1E21002001F01EFF01F0E3F80F
:102D200000F0D8FCA86801F0A6F801F0DCF814B0B7
:102D3000BDE8704001F0D9B83400002000401C46C6
:102D4000536563616E743A0054696D653A20252EAF
:102D500034662073000000004B7120252E32663A45
:102D600020252E346600000010B5502080F3118815
:102D7000BFF34F8FBFF36F8F02F068FD18B10449A6
:102D80004FF080500860002080F3118810BD0000D3
:102D900004ED00E030B58FB028216846FDF7C6FB92
:102DA00014210AA8FDF7C2FB01210804CDE9001097
:102DB0000024029402250491CDE907504FF4E0105D
:102DC00009906846FFF79CF808B172B6FEE70F203D
:102DD000CDE90A054FF48060CDE90C4002210AA834
:102DE0000E94FEF7A1FF002801D072B6FEE70FB0E7
:102DF00030BD70470148FFF770BA0000980B002003
:102E0000F0B50268194B1A4C1A4D4FF080479842A2
:102E100005D0B84203D0A04201D0A84203D122F08D
:102E200070064A683243984205D0B84203D0A042A7
:102E300001D0A84203D122F44074CA6822434C69ED
:102E400022F08002224302608A68C2620A688262BB
:102E5000984201D109690163012141610169C907F2
:102E600003D0016921F001010161F0BD002C014096
:102E70000004004000080040FEE7490050EAC1207D
:102E800018BF04204A0D18BF40F0010040F2FF7245
:102E9000B2EB515F08BF40F00200012808BF0520D7
:102EA000704720F00040C0F1FF40C00F7047090795
:102EB000090E002804DB00F1E02080F800147047C0
:102EC00000F00F0000F1E02080F8141D70470000B2
:102ED00010B5094802F0ECF90020074A01460C320F
:102EE00002EB0013401C19700828F9D3BDE810400C
:102EF000014802F0F3B90000BC0000202DE9F74FB3
:102F0000144694B00021C4E902111599079121F0EB
:102F10000045C9498D4206DC1599C4E9000117B086
:102F20000020BDE8F08FC549DFF814A3A9423CDDBD
:102F30000799C44E0029C44FC44A1599534619DD58
:102F400003F0D4FA554506D0C14AC24B03F0CEFA7D
:102F5000C4E900010AE04FF0D352BE4B03F0C6FAB9
:102F600032463B4603F0C2FAC4E9000117B0012023
:102F7000BDE8F08F02F090FD554506D0B44AB54B40
:102F800002F08AFDC4E900010AE04FF0D352B14BD0
:102F900002F082FD32463B4602F07EFDC4E90001AC
:102FA00017B04FF0FF30BDE8F08FAB49A94215993B
:102FB00078DB21F0004183468846A84AA84B03F0FD
:102FC00015F80022A74B02F067FD02F079FF099087
:102FD00002F0A5FF06460F469C4A534603F006F84A
:102FE00043465A4603F090F980468A46984A994BE0
:102FF0003046394602F0FAFF2A0D01250B9242466F
:10300000534603F081F9032DC4E9000139D00B9830
:10301000C1F30A51401A05EB45111139814230DAEA
:103020009148C346784400EB0510CDF80CA00C90F5
:10303000D0E900233046394602F0D8FF02460B465D
:10304000049106905846039903F050FA80468A4648
:1030500002460B465846039903F048FA049B069A29
:1030600003F044FA83460C9803913946D0E90223D1
:10307000304602F0BBFF5A46039B03F037FA6D1C43
:10308000BDE707980028A2BF099817B0BDE8F08FE8
:10309000616881F000416160099817B04042BDE865
:1030A000F08FFFE784461598C1F31301C0F30A506F
:1030B000A0F2F5304FEA601800F01F06C6F12000BC
:1030C000139000200690079041F4801E05206D4665
:1030D00076B1664A08EB00017A4452F8213002EBDF
:1030E0008101B3404A68139922FA01F1194305E0BE
:1030F0005F4908EB0002794451F82210A1FB0E272A
:10310000A1FB0C131A449A4234BF0123002303EBA2
:10311000070A05EB8003D3E901B70F448F4234BFA0
:103120000121002193448B4411B1934502D903E05E
:10313000934501D2012100E00021C3E901B75144C8
:1031400045F82010011EA0F10100C1DC0298059F86
:1031500000F10050800F12900298DDE903568000C4
:1031600002F0DDFE834628460D9102F0EFFE6FF07F
:103170001D0203F0E6FDCDE90E01304602F0E6FE49
:103180006FF03D0203F0DDFD80468A46384602F0CE
:10319000DDFE6FF05D0203F0D4FD07464246534664
:1031A000119102F079FCDDE90E2302F075FC5A461C
:1031B0000D9B02F071FC00250E465A4628460D9BD9
:1031C00003F094F9DDE90E2303F090F942465346EB
:1031D00003F08CF93A46119B03F096F8DFF898A0BB
:1031E000244A534602F002FF07468846234A244BEE
:1031F0003146284602F0FAFE3A46434602F04CFCBD
:10320000074688464FF0A84253463146284602F00A
:10321000EDFE3A46434602F03FFC159A12F0004F8D
:1032200004D0129A81F0004152421292C4E9000186
:10323000129817B0BDE8F08FFB21E93F7CD902401E
:10324000FB21F93F7370032E8A19A33B0000405401
:103250003163621A61B4D03DFB21394183C8C96D25
:10326000305FE43F0000E03FB04600002C46000025
:103270000E460000182D4454FB21F93D3326A611BB
:10328000460B113C2DE9FF4D21F0004807460C4646
:10329000B8F1795F08DA02F013FE002801BF0020C0
:1032A000324904B0BDE8F08D3A462346104619462F
:1032B00002F09CFE054602462D480E460B460621AE
:1032C000784400F05DF82A46334602F08FFEDDE9CF
:1032D000022382468B463846214602F087FE04468A
:1032E0000F4652465B462846314602F07FFE224694
:1032F0003B4603F0FBF807468A464FF0FF3228466C
:10330000314603F01EFD1B4A90450ADA3A46534601
:1033100003F0ECF804B00022BDE8F04D134B02F0CE
:10332000F3BF154A4245A8BFA8F500154FF00004A9
:10333000B8BF124D22462B4603F0D8F80646884601
:1033400022462B460020094903F0D0F804460D46DA
:103350003A4653463046414603F0C8F804B0224688
:103360002B46BDE8F04D02F0CFBF00000000F03F5B
:10337000DC4300003333D33F0000E93F0000D23F7D
:103380002DE9F0414F1E00EBC7010446D1E90001D1
:1033900015461E4637F006020DD02A46334602F087
:1033A00025FE7F1E04EBC703D3E9002302F074FB64
:1033B00037F00602F1D1022F25D0042F13D0062FAB
:1033C00018BFBDE8F0812A46334602F00FFED4E96B
:1033D0000A2302F061FB2A46334602F007FED4E9D5
:1033E000082302F059FB2A46334602F0FFFDD4E9D8
:1033F000062302F051FB2A46334602F0F7FDD4E9DA
:10340000042302F049FB2A46334602F0EFFDD4E9DB
:10341000022302F041FB2A46334602F0E7FDD4E9DD
:103420000023BDE8F04102F037BB00002DE9FF4D5D
:10343000054621F0004084B00C46B0F1795F0BDA0C
:103440002846FFF71AFD042808BF00F07FF8284639
:1034500008B02146BDE8F08D2A460B46104602F022
:10346000C5FD06460F462A46234602F0BFFD8046AC
:1034700026488A4632463B4605217844FFF780FFBE
:1034800083461098029160B3214A224B4046514630
:1034900002F0ACFDCDE900015A4640465146029B80
:1034A00002F0A4FD82468846DDE906014FF0FF32B6
:1034B00003F047FC5246434603F018F832463B46B9
:1034C00002F094FDDDE9062303F010F8DDE90023A6
:1034D00003F00CF808B02A462346BDE8F04D02F090
:1034E00013BF0B465A463046394602F07FFD084A64
:1034F000084B02F0D1FA4246534602F077FD08B07D
:103500002A462346BDE8F04D02F0C6BA2243000029
:10351000495555555555C5BF00221346104601491A
:1035200002F076BB0000F03F012203F00ABC02F07B
:10353000B3BA002213461046114602F069BB40F2AE
:10354000013200204FF0E04103F0FBBB024A0020B3
:10355000110703F0F6BB000001FDFFFF30380A2819
:1035600001D20120704700207047000010B5040010
:1035700006D0094801F09CFE20680178012902D09C
:1035800072B6FDF7B5FF001D01F092FEBDE81040D8
:10359000014801F0A3BE0000BC00002010B50400EB
:1035A00006D0084801F084FE20680178012902D085
:1035B00072B6FDF79DFF00210170BDE81040014883
:1035C00001F08CBEBC00002010B5040010D01548DE
:1035D00001F06EFE1348002110F10C0000EB011207
:1035E00012783AB1491C0829F8D30E4801F076FE4A
:1035F000002010BD00EB0110012120600170216846
:10360000091D0CD00020024641F82020401C022851
:10361000FAD30A72034801F061FE012010BD72B6B0
:10362000FDF766FFBC00002010B5040006D0094875
:1036300001F03EFE20680178012902D072B6FDF744
:1036400057FF001D01F04AFEBDE81040014801F09F
:1036500045BE0000BC0000202DE9FC47814601AAC0
:10366000694600F035F9DFF85C80174F00263868AE
:1036700030BBDDE9000103F04FF84FF0FF3103F0FC
:103680008EFB04460146484600F0AEF805460F4959
:1036900020F00040884202DA2046BDE8FC87484618
:1036A000009900F0A1F8294603F0CCF910F1FF4F82
:1036B00001D3019400E000940548761C8642D6DBD5
:1036C0004046EAE70000C07F3400002095BFD633B3
:1036D000A086010070B5084E0546002456F8240067
:1036E000A84204D000F001FC642000F0ABFB641C95
:1036F000032CF3DB70BD00002009002000B5244B33
:1037000021F0004287B09A42DCBF0022134629DD37
:10371000204B9A4208D140B94FF00100FCF74BFF13
:10372000FFF707FF07B000BD03DBFFF7FDFE07B0A3
:1037300000BD02AAFFF7E2FB10F0030104BF0DF188
:10374000080C9CE80F000DD0012001290ED00229A1
:1037500014D00DF1080C00909CE80F00FFF766FEF6
:1037600007B000BDFFF78EFD07B000BD0DF1080CDE
:1037700000909CE80F00FFF759FE05E00DF1080CE2
:103780009CE80F00FFF77EFD07B081F0004100BD0F
:10379000FB21E93F0000F07F2DE9F0410F46114D7C
:1037A00004462946384602F0B7FF0146204600F09D
:1037B0001BF806462946384603F01AFA0146204609
:1037C00000F012F804460121284603F0E8FA054605
:1037D0002146304603F00CFA2946BDE8F04103F0DB
:1037E0000FB800000AD7233C2DE9F04FE5B088461A
:1037F00007464FF0FF3400266D4645E020B1022811
:1038000006D0012808D03EE007EBC600406837E04C
:10381000641C45F8248036E007EBC6000079632875
:1038200010D0732816D0621E55F8241055F82220A7
:10383000A41E93462D2820D016DC2A2832D02B280F
:1038400021D116E055F82400641E02F039FFFFF77D
:1038500055FF06E055F82400641E02F031FF01F028
:103860007FFC02F0E7F80BE02F281FD05E280AD17A
:1038700020E0104602F050FF02E0104603F0B8F9D5
:10388000641C45F82400761C17F836000128B5D1D1
:1038900007EBC60109794529B0D155F8240065B078
:1038A000BDE8F08F104603F0CDF8E9E7104602F0CE
:1038B000A7FFE5E7084602F003FF81468A4658461F
:1038C00002F0FEFE4A46534600F014FBC9E7000032
:1038D0002DE9F74F82B089464B484FF07E51CDE934
:1038E0000010474D474C90464FF07F4B29460298B9
:1038F000FFF77AFF074621460298FFF775FF064655
:1039000027F0004ABBEB460F0AD0B7F5000F19DBD2
:1039100016F1FF4F16D33846FFF7C3FA70B111E026
:103920002046009902F0F8FE05460121009803F0B8
:1039300036FA214602F0F0FE044657E03046FFF723
:10394000B0FAC0B117F1FF4F0AD3B6F5000F07DB8D
:103950003846FFF7A6FA18B93046FFF7A2FA50B179
:103960005046019903F03AF805D326F0004001993A
:1039700003F034F806D2C9F80050C8F8004005B08A
:10398000BDE8F08F204602F09BFE204E0022334619
:1039900002F02CFB01F014FB0022334602F038F950
:1039A00002F048F805462046009902F0B5FE02F004
:1039B00087FE0022334602F019FB01F001FB0022D2
:1039C000334602F025F902F035F8044610488442E7
:1039D0000CDD0098B0F17E5F08D1094D4FF06630E4
:1039E0000C4902F027F804460B480090084884422E
:1039F0007FF77CAF0949C8F80010C9F80010BEE78E
:103A00000000A0C1000098C1ACC5273780842E41BA
:103A10000000A04166E633C0CDCCCC3D0000C07FA5
:103A2000EFF30580002800D0012070472DE9F04F0A
:103A300000259BB004466E1EFCF726FCDFF84CB256
:103A40001A901A9801682078095C202934D02E2811
:103A500032D0782830D0282820D000286FD00322F8
:103A60008BA12046FCF7DDFC70B1032289A1204622
:103A7000FCF7D7FC50B1207800F01CF9002876D074
:103A800020782D2814D094E0632100E07321761C67
:103A90000DF8061014F8030F282868D17E484168F5
:103AA000491C4160761C14F8011B0DF80610C8E78C
:103AB00079490120641C08604FF07E5019902078ED
:103AC0004FF0000AD1462D2807D100210BF8351000
:103AD0000BEBC500641C6D1C41601A9801682078CE
:103AE0008846095C20291BD02E2819D078283FD081
:103AF00047E02E2F20D0B9F1000F21D06749199847
:103B000002F0A0FF1990A7F1300002F03BFF1999D5
:103B100002F076FE4FEA0A0102F0FEFD8246641CC6
:103B2000277818F807002028E3D02E2FE1D05A4834
:103B3000016801290FD012E04FF00109EFE782E0A0
:103B4000A7F1300002F01EFF07465449504602F02C
:103B500079FF3946E0E700218AF0004A0160002140
:103B60000BEBC5000BF83510C0F804A008E07DE0B1
:103B700002210BF8351000210BEBC500641C4160DD
:103B80006D1C207800F096F898B92078292803D089
:103B900010F0FF0F57D069E0DFF8FC8020E000BF95
:103BA00002F8353002EBC507885D6D1C3871761E52
:103BB00002E0694601235A46002E0CDB885D00F0C6
:103BC00079F840B1885D00F081FE0746207800F06A
:103BD0007DFE8742E4DA761C14F8010B885530E745
:103BE000D8F804105846491EC8F804106946012345
:103BF00007E000BF00F8353000EBC5076D1C3A71D7
:103C0000761E002E03DB8A5D282AF3D1761E14F877
:103C1000010F00F04FF80028CBD120782928DFD001
:103C200010F0FF010FD01A980068405C20283FF484
:103C300043AF2E29FBD019E000EBC504935D6D1C4A
:103C40002371761E02E06A4601215846002E00F8D4
:103C50003510F1DA0BEBC500452101710E484068C3
:103C6000002803DC09481BB0BDE8F08FFEF77EFD9D
:103C700000210846FEF7AEFD0122094909A0FEF722
:103C8000B3FEFEF7C5FE0020EDE70000AC0100200A
:103C9000636F730073696E002400002000002041F0
:103CA000000000204C6F692062696575207468759A
:103CB000632100002B2809D02D2807D02A2805D001
:103CC0002F2803D05E2801D00020704701207047C4
:103CD00070B598B0FDF766FFFFF75CF8FEF70CFDD6
:103CE00036483549002401603549C0E901144FF4D4
:103CF0008041C0E9034144618461C4610462FDF70D
:103D00000BFDFEF76DFDFEF731FD0A20ADF8580002
:103D1000ADF854400020FEF751FD002129A20846CD
:103D200000F01AFF01F096F9020040D016A915A87C
:103D300000F000FED0B3FFF779FE244CE06080B3C2
:103D4000234800F096F81D4DA0606035E0682049DA
:103D500028601C2208316846FCF7AEFB29466846FD
:103D600000F097F8A5F10C0619493060E068A860EA
:103D70001C22243107A8FCF79FFB05F1080107A8C6
:103D800000F087F87060E068114928611C2240311A
:103D90000EA8FCF791FB05F110010EA800F079F8D0
:103DA000B06000F055F818B0002070BDFFE7322079
:103DB000FDF7A0FBB6E7000000540040CC0800204F
:103DC000801A06004E686170206274003400002082
:103DD0009075000801460020842900D0C81C704757
:103DE0002DE9F05F0025134F134EDFF85080DFF808
:103DF000509083462C463068D0B929465846FFF784
:103E0000F3FC824629465846FFF7C6FC2AF00042DA
:103E10000146424502DA2846BDE8F09F504602F0CE
:103E2000EFFC294602F0DAFE641C05464C45E2DB55
:103E30003846F1E70000C07F34000020FFE6DB2EAB
:103E4000A086010010B5012001F04AFB002010BD42
:103E500010B501F0C1FB002010BD10B5FFF7E0FD6B
:103E600018B1BDE8104001F0E9BCBDE8104001F018
:103E7000DFBC00207047812070478120704710B55B
:103E800001F0C8FC012803D0BDE81040FEF76CBF6C
:103E900010BD7FB50D4604464169B0F9080081B1F7
:103EA000A16971B1FFF796FFD4E905128DE807000B
:103EB000D4E900102B46226901F07BFC039004B08A
:103EC00070BDFFF787FF03A9CDE90001208A2B46CB
:103ED00082B2D4E9001001F03FFC012801D000209B
:103EE000EDE70398EBE701F08FBC10B501F01EFB86
:103EF000002010BD2DE9F04D1D460C4698B0174628
:103F000021F0004123F00043002814BF4FF0010CC2
:103F10004FF0000C0CEB440CFE4A0CEB02064FEA8F
:103F2000620C66452BD33E0018BF012606EB450602
:103F30001644F94A964222D3F84A53EA070C02D0B3
:103F4000944205D148B918B000201146BDE8F08D63
:103F5000002808BF4FF0000C01D04FF0010C0CEB13
:103F6000440212F5001F0AD8002F14BF4FF0010CB5
:103F70004FF0000C0CEB450212F5001F07D918B0EA
:103F80003A462B462146BDE8F04DFFF7D0BA002255
:103F9000DFF88CA3002CB8BF534526DADFF884C3C2
:103FA0006345A8BF022220DADFF870C39C451CDC01
:103FB000DFF874C30CEB235CBCF1140F08DDCCF10B
:103FC000340627FA06FC0CFA06F6BE420DD108E0CC
:103FD0005FB9CCF1140623FA06FC0CFA06F69E42F1
:103FE00003D10CF00102C2F1020251EA000C19D116
:103FF000002D17DA002C18BF022A01D0012A07D0A1
:104000000220FCF7D8FA18B0BDE8F04DFFF784BAEB
:104010000220FCF7D0FAFFF77FFA18B081F00041D8
:10402000BDE8F08DB7F1000C6CD1534525D104F1FA
:10403000804212F5801201BF00280020B74918B055
:1040400008BFBDE8F08DB548884207DC002DA1BF50
:104050006046294618B0BDE8F08D07E0281E05DA55
:1040600080F0004118B06046BDE8F08DAF4979445A
:10407000D1E9000118B0BDE8F08DDFF8A0C26345BA
:1040800025D1002D1FDA19B1514512D1D8B909E057
:10409000002840F0EC82A24A214618B062F31E01CB
:1040A000BDE8F08D0020214618B060F31E01BDE888
:1040B000F08D08DA18B02346BDE8F04D0246002026
:1040C000614601F0A5BD18B02146BDE8F08D51450F
:1040D00018DAB5F1804F0DD0A5F1005CBCF1FF5CA2
:1040E00010D1B4F1000C0DDB18B06146BDE8F04D05
:1040F00001F086B8234618B00246BDE8F04D1946D7
:1041000001F074BF060024F0004C3BD1D9B15145F9
:1041100033D1002C06DD002DA1BF0020514618B080
:10412000BDE8F08D002C01DD002D1BDB002C13DA27
:10413000002D11DB012A4FF0000014BF78497C49A3
:1041400018B0BDE8F08D022A18BF002C0AD0012A51
:1041500008D1002C06DA0AE0002CB8BF002D11DAD5
:10416000012A04D0002018B00146BDE8F08D18B037
:1041700000204FF00041BDE8F08DA1F14050B0F1BA
:104180007F601AD0012000EBE47050EA020421D0D5
:10419000624C521E4FF0000B104304BF4FF0000B57
:1041A000644C654883427CDD644A654893421FDD68
:1041B000884217DB002D25DB37E0002C00DA4AB1FE
:1041C000022A0CBF01204FF0FF3018B0BDE8F04DBF
:1041D00001F0A5BE0120FCF7EEF918B0BDE8F04DE6
:1041E000FFF7A7B94D4A8A4202DC002D0ADC1CE029
:1041F000814202DA002D18DA04E0484B994220DDB2
:10420000002D12DD0220FCF7D6F9FFF798F90546DC
:104210000E46002253465846214601F0E7FE18B0EC
:1042200066F31E012846BDE8F08D0220FCF7C3F9B5
:10423000FFF78CF90A46214618B062F31E01BDE86B
:10424000F08D00223046614602F050F980460E465D
:104250006FF0010202F075FD4FF05532394B02F05C
:1042600053F84246334601F0C1FE0022364B02F0BD
:104270004BF882464246334604911046194601F0F7
:10428000B5FE5246049B01F0B1FE8A4600904FF005
:10429000C0422E4B4046314601F0A8FE2C4A2B4B23
:1042A00000E027E0CDE906015146009801F09EFEAE
:1042B00082460191274A284B4046314601F096FE3E
:1042C0005246019B02F012F982460B4602460591C6
:1042D000DDE9060101F0E0FBDDE906230026884662
:1042E000304602F003F95246059B02F00DF80246F3
:1042F00000F07EB90020B1F5801F07DA3522304684
:10430000614602F01EFD06466FF0340000EB2150BE
:1043100024E00000FFFF1F00FFFF0F000000F03F40
:104320000000F07F0000404301FCFFFF5E3600000C
:104330000000F0FF0000F0BF0000E0410000F0438B
:10434000FFFFEF3F5555D53F0000E03F4715F73FD2
:10435000FE822B6544DF5DF80BAE543EA0F2FF30C9
:104360000190C1F3130040F07F6141F04051029190
:10437000FE498842D8BF002004DDFD498142C8BF04
:10438000012001DD0D9008E000200D900198401CF7
:1043900001900298A0F5801002900299F5487844A7
:1043A0000B910D9900EBC100D0E900230F9330462B
:1043B0000A920B9902F09AF8CDE90601DDE90A218B
:1043C00030460F9B01F068FB02460B460020EA498D
:1043D00001F01EFC059102460B460090DDE9060146
:1043E00001F004FE1490E5488A464FF00008784436
:1043F0000299006812904FF0005040EA61010D9858
:104400000F9B01EB804000F5002109910A9A129858
:1044100002F06CF832460B9B01F076FF42465346A1
:1044200001F0E4FD0646029140465146099B129A6E
:1044300001F0DCFDDDE9062301F066FF3246029B58
:1044400002F054F8059B009A01F0D0FD0091149AF7
:10445000049053461046194601F0C8FD0646024630
:10446000C7480B46029106217844FEF789FFCDE943
:104470000510029B32461046194601F0B7FDDDE9F2
:10448000053201F0B3FD05910646534640461946F4
:10449000149A01F001FB009B049A01F0A7FD32463B
:1044A000059B01F0F9FACDE9051042465346104646
:1044B000194601F09BFD0022B24B02910A9001F0D7
:1044C000EBFADDE9053201F0E7FA0E464246AD4B64
:1044D000404602F00BF8029B0A9A02F007F8DDE969
:1044E000053201F011FF424602910A903346104610
:1044F000514601F07BFDCDE906015346149A02991D
:104500000A9801F073FD8A460290334642460099AC
:10451000049801F06BFD5346029A01F0BDFA824601
:104520000B4602460591DDE9060101F0B5FADDE929
:10453000062300208846064601F0D8FF5246059B18
:1045400001F0E2FE824609914FF060428E4B304608
:10455000414601F04BFD049006918C4A8A4B50462F
:10456000099901F043FD82460291894A894B304600
:10457000414601F03BFD5246029B01F08DFA864B0D
:104580007B440D9A03EBC203D3E9002301F084FAC4
:104590000E900791019801F0C2FC0591DDE9061328
:1045A00082460E9A049801F077FA7C4A7A440D9B71
:1045B00002EBC303D3E900230093029201F06CFAEB
:1045C0005246059B01F068FA00268846524630465E
:1045D000059B01F08BFF009B029A01F087FF069B71
:1045E000049A01F083FF079B0E9A01F08DFE0246AC
:1045F00000200B4602903846294601F0F7FC82461F
:1046000001912B4638461946029A01F06FFF324657
:10461000434601F0EBFC5246019B01F03DFA074690
:104620008A46324643462946029801F0DFFC054699
:104630000E463A46534601F02FFA594A88469142AF
:1046400021DBA8EB020353EA000210D12A463346CD
:1046500001F04CFFCDE90401524A534B3846514614
:1046600001F01AFADDE9042301F0BEFD21D2022097
:10467000FBF7A1FFFEF763FF0A46214618B062F37D
:104680001E01BDE8F08D494B28F000429A4210D33C
:10469000474A08EB020353EA00027FF4C6AD2A46FC
:1046A000334601F023FF3A46534601F09DFD7FF665
:1046B000BCAD0022019228F000403E493E4A01EB89
:1046C0002051824223DA481C4FF4801121FA00F075
:1046D00040443A4AC0F30A517A44394BA1F2FF31BF
:1046E000CB4020EA0303C0F3130040F48010C1F173
:1046F0001401C84012680190B8F1000FBCBF4042DD
:1047000001902846314601F0F1FE05460E462A4644
:1047100033463846514601F0BFF94FF00008424693
:10472000284B4046059101F061FCCDE90601264A7F
:10473000264B4046059901F059FC009102902A460B
:1047400033464046059901F0D1FE3A46534601F002
:10475000DBFD1F4A1F4B01F049FC009B029A01F050
:104760009BF90746884602460B4635E08E980300C3
:104770007AB60B00763200000000F03FDE32000017
:10478000DC3100000000084009C7EE3FFD033ADCC1
:10479000F5015B14E02F3EBEB4300000783000001D
:1047A00000009040FE822B654715973C00CC90405E
:1047B00000346F3F01FCFFFF0000E03FF42F0000DA
:1047C000FFFF0F00432EE63F396CA80C615C20BE52
:1047D000EF39FAFE422EE63FDDE9060101F05CF911
:1047E000DDE9062305460E4601F080FE3A464346C3
:1047F00001F08AFD0F462A463346009010461946BE
:1048000001F0F4FB824602462E4888460B460521FD
:104810007844FEF7B5FD5246434601F0E7FB2A46D1
:10482000334601F071FD80468A463B4628463146B4
:10483000009A01F0DBFB3B46009A01F02DF906914E
:10484000009000224FF080434046514601F04EFE5A
:104850000F460C90424653462846314601F0C6FBAF
:104860003B460C9A01F0D4F9069B009A01F03EFEFB
:104870002A46334601F03AFE0022134B01F044FD74
:10488000054601980E4601EB00510815002810DC82
:1048900028463146019A02F054FAFEF7EEFA04284F
:1048A00008BFFEF753FE28463146019A02F049FA46
:1048B00005460B4618B02A4658462146BDE8F04D3D
:1048C00001F094BB642E00000000F03F2D280BD0B7
:1048D00004DC2A280AD02B2804D105E02F2805D093
:1048E0005E2805D0002070470120704702207047E5
:1048F0000320704730B587B014460D4601F0E0FE46
:10490000CDE9000108A2142102A8FBF7C5FC21464D
:104910002846FDF75FFF0122054902A8FEF764F86B
:10492000FEF776F807B030BD252E34660000000093
:10493000000000202DE9F05FDFF800920D460446EC
:10494000D9F804100026481EDFF8F48117464FF00E
:10495000780A442A04D04FF00B0B2E2F21D026E0EA
:104960004F4600291BDD786008F800602088062883
:1049700002D3801F208007E028880A2801D30A3844
:1049800028805046A4F800A0298880B2FDF722FFB5
:1049900001226C496CA0FEF727F8FEF739F83E704B
:1049A000A6E099F800302B2B34D02D2B32D029885B
:1049B0002088FDF70FFF012262493846FDF7C4FF4A
:1049C000FEF726F8D9F80400632806DA08F8007024
:1049D000401CC9F8040008F800602088801D80B2DF
:1049E000208078280BD9268028880A3080B2288039
:1049F000372804D9FDF7BAFEA5F800B02680D9F80B
:104A000004204846022A72DB424412F8013C2E2B55
:104A100067D06CE0002911DDC9F8040008F80060D7
:104A20002088062801D3801F2080298880B2FDF7C6
:104A3000D1FE0122434944A0FDF7D6FF99F80010AA
:104A400048462B2902D02D2919D038E04068C21CD5
:104A5000632A34DAC246C84650443CA1FBF7BDFC89
:104A6000D8F80400C01CC8F804000AF800602988BF
:104A70002088FDF7AFFE0122324934A018E04168DA
:104A8000CA1C632A1BDAC2460AEB0100C84630A1E1
:104A9000FBF7A3FCD8F80400C01CC8F804000AF80F
:104AA000006029882088FDF795FE0122254928A06D
:104AB000FDF79AFFFDF7ACFF208812302080208898
:104AC00078280BD9268028880A3080B22880372899
:104AD00004D9FDF74BFEA5F800B0268089F80070D8
:104AE00006E012F8021CC14680462E2903D007704A
:104AF0000020BDE8F09F20880C2802D30C382080CD
:104B000007E028880A2801D30A3828805046A4F8EC
:104B100000A0298880B2FDF75DFE012209490DA0A1
:104B2000FDF762FFFDF774FFD8F80400801EC8F897
:104B3000040009F800600248DBE7000008000020DC
:104B4000480100200000002020000000636F730077
:104B500073696E002020000010B51446FDF73AFE80
:104B6000012204492046FDF73FFFBDE81040FDF754
:104B70004FBF0000000000202DE9F041184C0F4607
:104B80000546E6682068001D00F0B8FB38B92068CB
:104B900090F82C1001208840216981432161681C14
:104BA00007D137B12168BDE8F0410E48091D00F07A
:104BB000E9BB20683544B5424560216805D2A06B49
:104BC000BDE8F041091D00F0C5BB606B091D00F098
:104BD000C1FBA06A854200D2A562BDE8F081000059
:104BE00054000020BC0C00202DE9F041054600F0E7
:104BF000D5FB2E4CA068401CA06020682C4F10B143
:104C0000606940B32DE02560A068012829D1002605
:104C100006EB860007EB800000F08EFB761C072E6B
:104C2000F6D323488C3000F087FB2148A03000F0F9
:104C300083FB1F48B43000F07FFB1D48C83000F0F4
:104C40007BFB1B48DC3000F077FB19488C3060633D
:104C50001430A06305E02068E96AC06A884200D881
:104C60002560606A401C6062E96A01202269884010
:104C70001043206101EB810007EB8000291D00F04B
:104C800081FB00F0ABFB606900280CD02068E96A6A
:104C9000C06A884207D207494FF080500860BFF3CE
:104CA0004F8FBFF36F8FBDE8F081000054000020EC
:104CB000E00B002004ED00E010B5044690F8510030
:104CC00058B101280CD002280FD0502080F3118851
:104CD000BFF34F8FBFF36F8FFEE7206B00F092FBA7
:104CE0002046BDE8104000F08DBB10BD0F4843F6D4
:104CF0009821420705D0C01D0C4A20F00700821AF7
:104D0000891A0B4A00230144C2E900030839183A02
:104D100021F0070111604B600B600B1AC0E9001312
:104D200093604FF00040536050617047D00C0020FA
:104D3000A8000020144E154CA6F1C8074FF080586B
:104D4000DFF84C9012E000BF00F028FBF068C56867
:104D5000281D00F0D3FAA068401EA0606068401EC5
:104D6000606000F03BFB2846FFF7A6FF6068002864
:104D7000EAD138680128F9D9C9F80080BFF34F8F0C
:104D8000BFF36F8FF2E70000A80C00205400002052
:104D900004ED00E02DE9F0479A46DDE909848146FB
:104DA0006FF00303206B03EB82021044089E20F097
:104DB0000707780707D0502080F31188BFF34F8F83
:104DC000BFF36F8FFEE7002561B1002023180A5C56
:104DD00083F834200A5C12B1401C1028F6D384F802
:104DE000435001E084F83450072E00D30626E662D3
:104DF000C4E91165201D00F0AAFA04F1180000F0C2
:104E0000A6FA2461C6F107006462A061E56484F833
:104E1000505052464946384600F0C0F82060B8F17C
:104E2000000F01D0C8F80040BDE8F08730B5114947
:104E300000E011460A688242FBD34B685C1884424A
:104E400003D1406818444860084643681C189442DF
:104E500009D1084C183C2468A24209D052681A446F
:104E600042600A6812680260814200D0086030BD6A
:104E70000460F9E7A80000200648416B096829B1E1
:104E8000416BC968C9684968816270474FF0FF315A
:104E9000FAE700005400002008484068401C4FF02A
:104EA000500080F3118804D0BFF34F8FBFF36F8F92
:104EB000FEE7BFF34F8FBFF36F8FFEE7B000002018
:104EC0002DE9F0410546002700F0BCFB324E30686A
:104ED00008B9FFF70BFF706905424ED1C5B308351D
:104EE00068070ED005F00700C0F108000544680708
:104EF00007D0502080F31188BFF34F8FBFF36F8F1F
:104F0000FEE72DB37068854237D823481830014634
:104F10000C6801E020460C466168A94202D2216873
:104F20000029F7D131688C4227D0076821680160D9
:104F300060680837411B10290FD96019420708D053
:104F4000502080F31188BFF34F8FBFF36F8FFEE7C0
:104F500013E041606560FFF769FF61687068401A9F
:104F60007060B268904200D2B06070690143002066
:104F7000C4E90001F068401CF06000F0CDFC780747
:104F800007D0502080F31188BFF34F8FBFF36F8F8E
:104F9000FEE73846BDE8F0819000002010B5031F01
:104FA0004FF080741C601B1F21F001011960191F54
:104FB000024B0B60143940380A6010BD994E00084E
:104FC0002DE9F04D07460E4601F044F904460D4622
:104FD0003A46334601F098F9DFF86CA0DFF86CB080
:104FE0001B4B0746884616F0004F4FF000020AD0D0
:104FF00000F0C0FF0AD900225B463846414601F066
:10500000F3F81BD212E000F0B5FF08D2002253469D
:105010002046294601F06AFA04460D460EE00022B9
:105020005B463846414601F0DFF807D80022534678
:105030002046294600F030FD04460D463146204604
:1050400065F31E01BDE8F08D0000F03F0000E03F79
:105050000000E0BF2DE9F0471A4E0024DFF8688019
:10506000DFF86890371D0022395D4846FCF749FBA0
:105070000120FCF73FFA00254046715DFCF73CFB40
:1050800068B16D1C042DF7DB395D01224846FCF741
:1050900038FB641C052CE6DB0020BDE8F0871420FB
:1050A000FCF728FA715D4046FCF726FB0028F9D092
:1050B000395D01224846FCF724FB054800EB8400DB
:1050C000405DEAE786750008000C014000080140D9
:1050D000100000202DE9FC5F834601AA6946FEF717
:1050E000F7FBDDE90064DFF868901A4F00253868A7
:1050F00060BB31465846FEF777FB8246214658464C
:10510000FEF772FB8046514601F072FD8246314641
:10511000204601F06DFD414601F094FC514601F03E
:105120006FFB214601F05AFD8046214601F060FDEB
:10513000094920F00040884202DA4046BDE8FC9F61
:10514000064826466D1C44468542D0DB4846F5E7B6
:105150000000C07F3400002095BFD633A086010038
:1051600000B5254B21F0004287B09A4203DC0022B3
:10517000134600922BE0214B9A4208D140B94FF0E0
:105180000100FBF718FAFEF7D4F907B000BD03DB06
:10519000FEF7CAF907B000BD02AAFDF7AFFE10F096
:1051A00003014FF001000DD0012914D002291AD0BB
:1051B0000DF1080C9CE80F00FEF764F807B081F0D1
:1051C000004100BD0DF1080C00909CE80F00FEF7B7
:1051D0002DF907B000BD0DF1080C9CE80F00FEF79B
:1051E00051F807B000BD0DF1080C00909CE80F00CD
:1051F000FEF71CF9E2E70000FB21E93F0000F07F29
:105200002DE9F04106460F4601F08AF8041E0D46CE
:1052100018BF0120284320F00040C0F17F6000F15A
:10522000E040C00F0ED0301C18BF0120384320F0E2
:105230000040C0F17F6000F1E040C00F04BF0120DA
:10524000FBF7B9F920462946BDE8F0810148401E28
:10525000FDD1704790D003001CB502238DF80410D7
:105260000A2100918DF80520014601AA0148FCF7AA
:10527000CDFB1CBDCC08002070B5C2B000248DF859
:10528000041001A904E0155D0E19641C7570E4B2E8
:105290009C42F8D30A2100915B1C01469BB201AAF3
:1052A0000248FCF7B3FB42B070BD0000CC08002000
:1052B00010B510B1017A022902D372B6FCF718F9C1
:1052C0005022EFF3118382F31188BFF34F8FBFF3A6
:1052D0006F8F8A00491C0172835010BD10B528B130
:1052E000017A491EC9B20172022902D372B6FCF7D3
:1052F000FFF850F8210080F3118810BDD0E9013289
:1053000001699A60D0E901235A604A68824201D15A
:1053100082684A60002202610868401E08600868CE
:1053200070470000034B036003F1540008608020C5
:10533000106070474409002000F108014FF0FF326F
:10534000C0E90112C16001610021016070470021C4
:105350000161704730B50B685A1C02D000F1080299
:1053600002E0026904E02246546825689D42FAD9A9
:1053700053684B6099608A60516008610168491CFC
:10538000016030BD42684A6093688B6093685960E1
:10539000916008610168491C01607047502080F3EA
:1053A0001188BFF34F8FBFF36F8F0A494868401CC5
:1053B000486001280CD10848006810F0FF0F07D0A2
:1053C000502080F31188BFF34F8FBFF36F8FFEE73C
:1053D00070470000B000002004ED00E00849486874
:1053E00028B1401E486001D180F3118870475020D9
:1053F00080F31188BFF34F8FBFF36F8FFEE700007C
:10540000B000002070B500282AD0164DA0F1080485
:1054100060686969084207D1502080F31188BFF3A2
:105420004F8FBFF36F8FFEE722683AB1502080F3B1
:105430001188BFF34F8FBFF36F8FFEE78843606023
:1054400000F000F960686968084468602046FFF76A
:10545000EDFC2869401C2861BDE8704000F05CBA92
:1054600070BD0000900000204FF0E020002101619D
:105470008161054942F210720968B1FBF2F1491EDF
:1054800041610721016170475000002010B5FAF713
:10549000D7FE114910280ED300F1E02090F8F00358
:1054A0000A78904207D2502080F31188BFF34F8FC3
:1054B000BFF36F8FFEE709480068896800F4E06079
:1054C000884207D9502080F31188BFF34F8FBFF374
:1054D0006F8FFEE710BD0000B00000200CED00E073
:1054E00010B5020014D00F48006B38B1502080F383
:1054F0001188BFF34F8FBFF36F8FFEE700F0A2F864
:1055000000211046FFF738FB00F006FA002807D10B
:1055100005494FF080500860BFF34F8FBFF36F8F86
:1055200010BD00005400002004ED00E070B50546F9
:10553000FFF734FF254C05B92568281DFFF7DEFE6F
:1055400058B9E86A224A00EB800152F8211021B9CB
:1055500001218140206988432061A86A18B105F1C2
:105560001800FFF7CBFE606A401C6062206885422D
:1055700008D11748291DC830FFF704FF6068401C98
:10558000606007E0A068401EA0602846FFF794FB1B
:10559000FFF772FCFFF722FF6069002814D0206833
:1055A000854211D1206B38B1502080F31188BFF3B0
:1055B0004F8FBFF36F8FFEE706494FF080500860B2
:1055C000BFF34F8FBFF36F8F70BD000054000020FA
:1055D000E00B002004ED00E010B586B00024039439
:1055E00005AA04A903A80494FFF79CFEDDE90301C2
:1055F0000094CDE9011000230EA11048059A00F097
:10560000D8F80F490028C86211D0502080F31188C3
:10561000BFF34F8FBFF36F8F4FF0FF3088620120D1
:105620004861CC6006B0BDE8104000F041B806B05B
:1056300010BD000049444C4500000000354D0008F5
:10564000540000200248016B491C016370470000B0
:10565000540000201448016B11B10121C161704751
:105660000021C1610169B1FA81F1C1F11F0101EBB2
:1056700081020E4951F822306BB101EB820101F138
:1056800008034A6852684A609A4201D152684A60E7
:10569000D16801607047502080F31188BFF34F8FAD
:1056A000BFF36F8FFEE7000054000020E00B0020E6
:1056B0001CB5264908780190FF20087008788DF8FD
:1056C00000009DF800009DF8002000F0F0009042DE
:1056D00007D0502080F31188BFF34F8FBFF36F8F37
:1056E000FEE79DF800001A4C00F0500020700720E3
:1056F000A06005E09DF8002052008DF80020401EBB
:105700009DF800201206F5D4A060032807D0502091
:1057100080F31188BFF34F8FBFF36F8FFEE74FF415
:105720004070A060019808700A48016841F4700157
:105730000160016841F070410160FFF795FE0020B3
:105740006060FAF747FD00201CBD000000E400E0A7
:10575000B000002020ED00E02DE9FF5F8346DDE989
:105760000E87994616468A469000FFF7A9FB05006A
:105770001CD05420FFF7A4FB040014D000202563A4
:1057800084F85100CDE90240CDE900874B4632460E
:1057900051465846FFF7FEFA2046FFF725FA01204A
:1057A00004B0BDE8F09F2846FFF72CFE4FF0FF3015
:1057B000F6E7F0B585B0DDE90B640A9DA6B1DCB172
:1057C000542700972663022684F85160002604AF10
:1057D000CDE90246CDE90057FFF7DCFA2046FFF796
:1057E00003FA049805B0F0BD502080F31188BFF390
:1057F0004F8FBFF36F8FFEE7502080F31188BFF308
:105800004F8FBFF36F8FFEE70148006870470000BD
:10581000540000200548416919B1006B18B10020FF
:10582000704701207047022070470000540000209C
:105830000148C068704700005400002010B5FFF711
:1058400025FE0148C06810BD540000202DE9F0413C
:105850002F4C0026206B28B1A069401CA061304667
:10586000BDE8F081E5686D1CE56013D1606B0068F0
:1058700038B1502080F31188BFF34F8FBFF36F8F83
:10588000FEE7606BA16B6163A063206A401C20622D
:10589000FFF7F2FAA06ADFF87C80854209D3606BDB
:1058A0000068A0B1606BC068C7687868854211D293
:1058B000A0622068C06A00EB800158F8210001282E
:1058C00000D90126E0690028C9D00126C7E74FF0BA
:1058D000FF30EDE7381DFFF711FDB86A18B107F189
:1058E0001800FFF70BFDF96A012022698840104378
:1058F000206101EB810108EB8100391DFFF742FDBA
:10590000F86A2168C96A8842C9D30126C7E700003E
:1059100054000020E00B00202DE9F0472C4D00241E
:105920002746286B38B1FFF739FD286B401E2863E6
:10593000286B40B146E0502080F31188BFF34F8FB1
:10594000BFF36F8FFEE7A968224E0120D1B3A6F105
:10595000B40980463068E8B1F068C46804F1180002
:10596000FFF7CCFC201DFFF7C9FCE06A2A6908FAA2
:1059700000F11143296100EB800109EB8100211D39
:10598000FFF700FDE06A2968C96A8842E2D3C5F8DA
:105990001C80DFE70CB1FFF76FFAAC6944B14646F3
:1059A000FFF754FF00B1EE61641EF9D10020A86139
:1059B000E86938B10849012738070860BFF34F8FFD
:1059C000BFF36F8FFFF70AFD3846BDE8F087000090
:1059D00054000020940C002004ED00E010B50029D4
:1059E0000AD00878002807D005487844FBF740F92A
:1059F000002801D0002010BD0248784410BD0000EE
:105A0000BA1E0000B21E000010B500290AD00878A6
:105A1000002807D005487844FBF72AF9002801D070
:105A2000002010BD0248784410BD00009E1F0000F9
:105A3000961F000021F00042A2F16052B2F5801FD3
:105A400001F0004328BFD2F17F6C0BD95FEA001C44
:105A500043EAC20242EB507018BF704728BF20F0E3
:105A600001007047B2F5801FBCBF184670474FEA6F
:105A7000410C1CF5001F02D2084601F0AAB870B50F
:105A800000F05EFB00000089FFF7F6BF4FF000401A
:105A9000A0F580007047000010B591EA030F48BFE1
:105AA00083F0004300F12A85841A71EB030C05D2C0
:105AB000121943EB0C03001B61EB0C01DFF824E12E
:105AC0004FEA1154A4EB135C1EEA430F18BF9EEA81
:105AD000445F73D023EA0E03DCF1200E21EA045167
